:020000040000FA
:02000000912845
:040002000034003492
:080008008C28F0017110F114C5
:100010008312073099043830870083168701073030
:1000200091050800711408007110831238308700A0
:10003000080000307002031D1F28F1102934013020
:100040007002031D2528F1142C3402307002031DA8
:100050002B28F110343403307002031D3128F114C1
:10006000323404307002031D3728F1101A34F114B1
:100070001934711C0800192083128700F00A7008D7
:10008000053C031CF0010800831607308504F83096
:1000900091058B150B104D2008001920F200F3007C
:1000A000F30CF30CF30C0730F205F305720873063A
:1000B000831696000800711D6C288316160883129B
:1000C0000505031D6628F11868286A28F1186A28B2
:1000D0000B10080039204D200B1008007111F4019D
:1000E000F50183168B1681120B116400F030810527
:1000F000023081040800711988287508013CFE3C13
:10010000031C7115711988283920F40B8828F50A09
:100110000B1108008B1708000B197B208B195B2033
:0E0120000900052044206E2012208A20962817
:02400E00C430BC
:00000001FF
