:020000040000FA
:02000000552881
:040002000034003492
:080008005128F001F1108312F0
:10001000073099043830870083168701073091052F
:100020000800F1108312383087000800F11408002E
:10003000F11C080000307002031D202829303928E7
:1000400001307002031D26282C303928023070023E
:10005000031D2C283430392803307002031D322848
:100060003230392804307002031D38281A303928FC
:10007000193083128700F00A7008053C031CF00158
:100080000B11080083168B1681120B116400831666
:10009000F030010502388100831208000B178B171E
:1000A000080083120B191820090005201620422091
:0400B0004E2059285D
:02400E00C430BC
:00000001FF
